{
  "contractName": "Test",
  "abi": [
    {
      "inputs": [
        {
          "internalType": "string",
          "name": "_text",
          "type": "string"
        },
        {
          "internalType": "int256",
          "name": "_num",
          "type": "int256"
        }
      ],
      "stateMutability": "nonpayable",
      "type": "constructor"
    },
    {
      "inputs": [
        {
          "internalType": "string",
          "name": "",
          "type": "string"
        }
      ],
      "name": "balance",
      "outputs": [
        {
          "internalType": "uint256",
          "name": "",
          "type": "uint256"
        }
      ],
      "stateMutability": "view",
      "type": "function"
    }
  ],
  "bytecode": "0x60806040523480156200001157600080fd5b50604051620008f1380380620008f18339818101604052810190620000379190620002ae565b806000819055506040518060400160405280600781526020017f74657374696e6700000000000000000000000000000000000000000000000000815250600190816200008491906200055f565b5081600190816200009691906200055f565b5033600460006101000a81548173ffffffffffffffffffffffffffffffffffffffff021916908373ffffffffffffffffffffffffffffffffffffffff160217905550505062000646565b6000604051905090565b600080fd5b600080fd5b600080fd5b600080fd5b6000601f19601f8301169050919050565b7f4e487b7100000000000000000000000000000000000000000000000000000000600052604160045260246000fd5b6200014982620000fe565b810181811067ffffffffffffffff821117156200016b576200016a6200010f565b5b80604052505050565b600062000180620000e0565b90506200018e82826200013e565b919050565b600067ffffffffffffffff821115620001b157620001b06200010f565b5b620001bc82620000fe565b9050602081019050919050565b60005b83811015620001e9578082015181840152602081019050620001cc565b60008484015250505050565b60006200020c620002068462000193565b62000174565b9050828152602081018484840111156200022b576200022a620000f9565b5b62000238848285620001c9565b509392505050565b600082601f830112620002585762000257620000f4565b5b81516200026a848260208601620001f5565b91505092915050565b6000819050919050565b620002888162000273565b81146200029457600080fd5b50565b600081519050620002a8816200027d565b92915050565b60008060408385031215620002c857620002c7620000ea565b5b600083015167ffffffffffffffff811115620002e957620002e8620000ef565b5b620002f78582860162000240565b92505060206200030a8582860162000297565b9150509250929050565b600081519050919050565b7f4e487b7100000000000000000000000000000000000000000000000000000000600052602260045260246000fd5b600060028204905060018216806200036757607f821691505b6020821081036200037d576200037c6200031f565b5b50919050565b60008190508160005260206000209050919050565b60006020601f8301049050919050565b600082821b905092915050565b600060088302620003e77fffffffffffffffffffffffffffffffffffffffffffffffffffffffffffffffff82620003a8565b620003f38683620003a8565b95508019841693508086168417925050509392505050565b6000819050919050565b6000819050919050565b6000620004406200043a62000434846200040b565b62000415565b6200040b565b9050919050565b6000819050919050565b6200045c836200041f565b620004746200046b8262000447565b848454620003b5565b825550505050565b600090565b6200048b6200047c565b6200049881848462000451565b505050565b5b81811015620004c057620004b460008262000481565b6001810190506200049e565b5050565b601f8211156200050f57620004d98162000383565b620004e48462000398565b81016020851015620004f4578190505b6200050c620005038562000398565b8301826200049d565b50505b505050565b600082821c905092915050565b6000620005346000198460080262000514565b1980831691505092915050565b60006200054f838362000521565b9150826002028217905092915050565b6200056a8262000314565b67ffffffffffffffff8111156200058657620005856200010f565b5b6200059282546200034e565b6200059f828285620004c4565b600060209050601f831160018114620005d75760008415620005c2578287015190505b620005ce858262000541565b8655506200063e565b601f198416620005e78662000383565b60005b828110156200061157848901518255600182019150602085019450602081019050620005ea565b868310156200063157848901516200062d601f89168262000521565b8355505b6001600288020188555050505b505050505050565b61029b80620006566000396000f3fe608060405234801561001057600080fd5b506004361061002b5760003560e01c80633d80b53214610030575b600080fd5b61004a600480360381019061004591906101e8565b610060565b604051610057919061024a565b60405180910390f35b6005818051602081018201805184825260208301602085012081835280955050505050506000915090505481565b6000604051905090565b600080fd5b600080fd5b600080fd5b600080fd5b6000601f19601f8301169050919050565b7f4e487b7100000000000000000000000000000000000000000000000000000000600052604160045260246000fd5b6100f5826100ac565b810181811067ffffffffffffffff82111715610114576101136100bd565b5b80604052505050565b600061012761008e565b905061013382826100ec565b919050565b600067ffffffffffffffff821115610153576101526100bd565b5b61015c826100ac565b9050602081019050919050565b82818337600083830152505050565b600061018b61018684610138565b61011d565b9050828152602081018484840111156101a7576101a66100a7565b5b6101b2848285610169565b509392505050565b600082601f8301126101cf576101ce6100a2565b5b81356101df848260208601610178565b91505092915050565b6000602082840312156101fe576101fd610098565b5b600082013567ffffffffffffffff81111561021c5761021b61009d565b5b610228848285016101ba565b91505092915050565b6000819050919050565b61024481610231565b82525050565b600060208201905061025f600083018461023b565b9291505056fea26469706673582212208270b6e494f2ce58bdc4533b2754c57bea9d2192375ab764dcb9a1210c3be6aa64736f6c63430008130033",
  "immutableReferences": {},
  "source": "// SPDX-License-Identifier: MIT\r\npragma solidity ^0.8.18;\r\n\r\ncontract Test {\r\n  int num;\r\n  string text;\r\n  int[] numArr;\r\n  string textArr;\r\n  address owner;\r\n\r\n  mapping(string => uint) public balance;\r\n\r\n  constructor(string memory _text, int _num) {\r\n    num = _num;\r\n    text = \"testing\";\r\n    text = _text;\r\n    owner = msg.sender;\r\n  }\r\n}\r\n",
  "sourcePath": "C:\\Users\\KGA_19\\Desktop\\Blockchain7\\New.No.089_0306\\contracts\\Test.sol",
  "compiler": {
    "name": "solc",
    "version": "0.8.19+commit.7dd6d404.Emscripten.clang"
  },
  "schemaVersion": "3.4.13",
  "updatedAt": "2023-03-06T05:34:10.127Z",
  "devdoc": {
    "kind": "dev",
    "methods": {},
    "version": 1
  },
  "userdoc": {
    "kind": "user",
    "methods": {},
    "version": 1
  }
}