{
  "contractName": "TestToken",
  "abi": [
    {
      "inputs": [
        {
          "internalType": "string",
          "name": "_symbol",
          "type": "string"
        }
      ],
      "stateMutability": "nonpayable",
      "type": "constructor"
    },
    {
      "inputs": [
        {
          "internalType": "address",
          "name": "",
          "type": "address"
        }
      ],
      "name": "balances",
      "outputs": [
        {
          "internalType": "uint256",
          "name": "",
          "type": "uint256"
        }
      ],
      "stateMutability": "view",
      "type": "function",
      "constant": true
    },
    {
      "inputs": [],
      "name": "decimals",
      "outputs": [
        {
          "internalType": "uint256",
          "name": "",
          "type": "uint256"
        }
      ],
      "stateMutability": "view",
      "type": "function",
      "constant": true
    },
    {
      "inputs": [],
      "name": "name",
      "outputs": [
        {
          "internalType": "string",
          "name": "",
          "type": "string"
        }
      ],
      "stateMutability": "view",
      "type": "function",
      "constant": true
    },
    {
      "inputs": [],
      "name": "symbol",
      "outputs": [
        {
          "internalType": "string",
          "name": "",
          "type": "string"
        }
      ],
      "stateMutability": "view",
      "type": "function",
      "constant": true
    },
    {
      "inputs": [],
      "name": "totalSupply",
      "outputs": [
        {
          "internalType": "uint256",
          "name": "",
          "type": "uint256"
        }
      ],
      "stateMutability": "view",
      "type": "function",
      "constant": true
    },
    {
      "inputs": [
        {
          "internalType": "address",
          "name": "_owner",
          "type": "address"
        }
      ],
      "name": "balanceOf",
      "outputs": [
        {
          "internalType": "uint256",
          "name": "balance",
          "type": "uint256"
        }
      ],
      "stateMutability": "view",
      "type": "function",
      "constant": true
    },
    {
      "inputs": [],
      "name": "getOwner",
      "outputs": [
        {
          "internalType": "address",
          "name": "owner",
          "type": "address"
        }
      ],
      "stateMutability": "view",
      "type": "function",
      "constant": true
    },
    {
      "inputs": [
        {
          "internalType": "address",
          "name": "_to",
          "type": "address"
        },
        {
          "internalType": "uint256",
          "name": "_value",
          "type": "uint256"
        }
      ],
      "name": "transfer",
      "outputs": [
        {
          "internalType": "bool",
          "name": "success",
          "type": "bool"
        }
      ],
      "stateMutability": "nonpayable",
      "type": "function"
    }
  ],
  "bytecode": "0x60806040526040518060400160405280600381526020017f646f670000000000000000000000000000000000000000000000000000000000815250600190816200004a9190620003c5565b506040518060400160405280600281526020017f444700000000000000000000000000000000000000000000000000000000000081525060029081620000919190620003c5565b506012600355600354600a620000a891906200062f565b6103e8620000b7919062000680565b600455348015620000c757600080fd5b5060405162001043380380620010438339818101604052810190620000ed91906200082f565b6004546000803373ffffffffffffffffffffffffffffffffffffffff1673ffffffffffffffffffffffffffffffffffffffff168152602001908152602001600020819055508060029081620001439190620003c5565b505062000880565b600081519050919050565b7f4e487b7100000000000000000000000000000000000000000000000000000000600052604160045260246000fd5b7f4e487b7100000000000000000000000000000000000000000000000000000000600052602260045260246000fd5b60006002820490506001821680620001cd57607f821691505b602082108103620001e357620001e262000185565b5b50919050565b60008190508160005260206000209050919050565b60006020601f8301049050919050565b600082821b905092915050565b6000600883026200024d7fffffffffffffffffffffffffffffffffffffffffffffffffffffffffffffffff826200020e565b6200025986836200020e565b95508019841693508086168417925050509392505050565b6000819050919050565b6000819050919050565b6000620002a6620002a06200029a8462000271565b6200027b565b62000271565b9050919050565b6000819050919050565b620002c28362000285565b620002da620002d182620002ad565b8484546200021b565b825550505050565b600090565b620002f1620002e2565b620002fe818484620002b7565b505050565b5b8181101562000326576200031a600082620002e7565b60018101905062000304565b5050565b601f82111562000375576200033f81620001e9565b6200034a84620001fe565b810160208510156200035a578190505b620003726200036985620001fe565b83018262000303565b50505b505050565b600082821c905092915050565b60006200039a600019846008026200037a565b1980831691505092915050565b6000620003b5838362000387565b9150826002028217905092915050565b620003d0826200014b565b67ffffffffffffffff811115620003ec57620003eb62000156565b5b620003f88254620001b4565b620004058282856200032a565b600060209050601f8311600181146200043d576000841562000428578287015190505b620004348582620003a7565b865550620004a4565b601f1984166200044d86620001e9565b60005b82811015620004775784890151825560018201915060208501945060208101905062000450565b8683101562000497578489015162000493601f89168262000387565b8355505b6001600288020188555050505b505050505050565b7f4e487b7100000000000000000000000000000000000000000000000000000000600052601160045260246000fd5b60008160011c9050919050565b6000808291508390505b60018511156200053a57808604811115620005125762000511620004ac565b5b6001851615620005225780820291505b80810290506200053285620004db565b9450620004f2565b94509492505050565b60008262000555576001905062000628565b8162000565576000905062000628565b81600181146200057e57600281146200058957620005bf565b600191505062000628565b60ff8411156200059e576200059d620004ac565b5b8360020a915084821115620005b857620005b7620004ac565b5b5062000628565b5060208310610133831016604e8410600b8410161715620005f95782820a905083811115620005f357620005f2620004ac565b5b62000628565b620006088484846001620004e8565b92509050818404811115620006225762000621620004ac565b5b81810290505b9392505050565b60006200063c8262000271565b9150620006498362000271565b9250620006787fffffffffffffffffffffffffffffffffffffffffffffffffffffffffffffffff848462000543565b905092915050565b60006200068d8262000271565b91506200069a8362000271565b9250828202620006aa8162000271565b91508282048414831517620006c457620006c3620004ac565b5b5092915050565b6000604051905090565b600080fd5b600080fd5b600080fd5b600080fd5b6000601f19601f8301169050919050565b6200070582620006e9565b810181811067ffffffffffffffff8211171562000727576200072662000156565b5b80604052505050565b60006200073c620006cb565b90506200074a8282620006fa565b919050565b600067ffffffffffffffff8211156200076d576200076c62000156565b5b6200077882620006e9565b9050602081019050919050565b60005b83811015620007a557808201518184015260208101905062000788565b60008484015250505050565b6000620007c8620007c2846200074f565b62000730565b905082815260208101848484011115620007e757620007e6620006e4565b5b620007f484828562000785565b509392505050565b600082601f830112620008145762000813620006df565b5b815162000826848260208601620007b1565b91505092915050565b600060208284031215620008485762000847620006d5565b5b600082015167ffffffffffffffff811115620008695762000868620006da565b5b6200087784828501620007fc565b91505092915050565b6107b380620008906000396000f3fe608060405234801561001057600080fd5b50600436106100885760003560e01c806370a082311161005b57806370a0823114610117578063893d20e81461014757806395d89b4114610165578063a9059cbb1461018357610088565b806306fdde031461008d57806318160ddd146100ab57806327e235e3146100c9578063313ce567146100f9575b600080fd5b6100956101b3565b6040516100a291906104d4565b60405180910390f35b6100b3610241565b6040516100c0919061050f565b60405180910390f35b6100e360048036038101906100de919061058d565b610247565b6040516100f0919061050f565b60405180910390f35b61010161025f565b60405161010e919061050f565b60405180910390f35b610131600480360381019061012c919061058d565b610265565b60405161013e919061050f565b60405180910390f35b61014f6102ad565b60405161015c91906105c9565b60405180910390f35b61016d6102b5565b60405161017a91906104d4565b60405180910390f35b61019d60048036038101906101989190610610565b610343565b6040516101aa919061066b565b60405180910390f35b600180546101c0906106b5565b80601f01602080910402602001604051908101604052809291908181526020018280546101ec906106b5565b80156102395780601f1061020e57610100808354040283529160200191610239565b820191906000526020600020905b81548152906001019060200180831161021c57829003601f168201915b505050505081565b60045481565b60006020528060005260406000206000915090505481565b60035481565b60008060008373ffffffffffffffffffffffffffffffffffffffff1673ffffffffffffffffffffffffffffffffffffffff168152602001908152602001600020549050919050565b600033905090565b600280546102c2906106b5565b80601f01602080910402602001604051908101604052809291908181526020018280546102ee906106b5565b801561033b5780601f106103105761010080835404028352916020019161033b565b820191906000526020600020905b81548152906001019060200180831161031e57829003601f168201915b505050505081565b6000816000803373ffffffffffffffffffffffffffffffffffffffff1673ffffffffffffffffffffffffffffffffffffffff16815260200190815260200160002054101561039057600080fd5b816000803373ffffffffffffffffffffffffffffffffffffffff1673ffffffffffffffffffffffffffffffffffffffff16815260200190815260200160002060008282546103de9190610715565b92505081905550816000808573ffffffffffffffffffffffffffffffffffffffff1673ffffffffffffffffffffffffffffffffffffffff16815260200190815260200160002060008282546104339190610749565b925050819055506001905092915050565b600081519050919050565b600082825260208201905092915050565b60005b8381101561047e578082015181840152602081019050610463565b60008484015250505050565b6000601f19601f8301169050919050565b60006104a682610444565b6104b0818561044f565b93506104c0818560208601610460565b6104c98161048a565b840191505092915050565b600060208201905081810360008301526104ee818461049b565b905092915050565b6000819050919050565b610509816104f6565b82525050565b60006020820190506105246000830184610500565b92915050565b600080fd5b600073ffffffffffffffffffffffffffffffffffffffff82169050919050565b600061055a8261052f565b9050919050565b61056a8161054f565b811461057557600080fd5b50565b60008135905061058781610561565b92915050565b6000602082840312156105a3576105a261052a565b5b60006105b184828501610578565b91505092915050565b6105c38161054f565b82525050565b60006020820190506105de60008301846105ba565b92915050565b6105ed816104f6565b81146105f857600080fd5b50565b60008135905061060a816105e4565b92915050565b600080604083850312156106275761062661052a565b5b600061063585828601610578565b9250506020610646858286016105fb565b9150509250929050565b60008115159050919050565b61066581610650565b82525050565b6000602082019050610680600083018461065c565b92915050565b7f4e487b7100000000000000000000000000000000000000000000000000000000600052602260045260246000fd5b600060028204905060018216806106cd57607f821691505b6020821081036106e0576106df610686565b5b50919050565b7f4e487b7100000000000000000000000000000000000000000000000000000000600052601160045260246000fd5b6000610720826104f6565b915061072b836104f6565b9250828203905081811115610743576107426106e6565b5b92915050565b6000610754826104f6565b915061075f836104f6565b9250828201905080821115610777576107766106e6565b5b9291505056fea264697066735822122061560ad55f204de09bb5ea5a936c93721baa0b6b1fd4db28d20bb785e327580264736f6c63430008130033",
  "immutableReferences": {},
  "source": "// SPDX-License-Identifier:MIT\r\npragma solidity ^0.8.18;\r\n\r\ncontract TestToken {\r\n  mapping(address => uint256) public balances;\r\n  string public name = \"dog\";\r\n  string public symbol = \"DG\";\r\n  uint public decimals = 18;\r\n  uint public totalSupply = 1000 * 10 ** decimals;\r\n\r\n  constructor(string memory _symbol) {\r\n    balances[msg.sender] = totalSupply;\r\n    symbol = _symbol;\r\n  }\r\n\r\n  function balanceOf(address _owner) public view returns (uint balance) {\r\n    return balances[_owner];\r\n  }\r\n\r\n  function getOwner() public view returns (address owner) {\r\n    return msg.sender;\r\n  }\r\n\r\n  function transfer(address _to, uint _value) public returns (bool success) {\r\n    require(balances[msg.sender] >= _value);\r\n    balances[msg.sender] -= _value;\r\n    balances[_to] += _value;\r\n    return true;\r\n  }\r\n}\r\n",
  "sourcePath": "C:\\Users\\KGA_19\\Desktop\\Blockchain7\\New.No.089_0306\\contracts\\TestToken.sol",
  "compiler": {
    "name": "solc",
    "version": "0.8.19+commit.7dd6d404.Emscripten.clang"
  },
  "schemaVersion": "3.4.13",
  "updatedAt": "2023-03-06T05:34:12.597Z",
  "networkType": "ethereum",
  "devdoc": {
    "kind": "dev",
    "methods": {},
    "version": 1
  },
  "userdoc": {
    "kind": "user",
    "methods": {},
    "version": 1
  }
}